{
  "_format": "hh-sol-artifact-1",
  "contractName": "DryadesNFT",
  "sourceName": "contracts/DryadesNFT.sol",
  "abi": [
    {
      "inputs": [],
      "stateMutability": "nonpayable",
      "type": "constructor"
    },
    {
      "anonymous": false,
      "inputs": [
        {
          "indexed": true,
          "internalType": "address",
          "name": "owner",
          "type": "address"
        },
        {
          "indexed": true,
          "internalType": "address",
          "name": "approved",
          "type": "address"
        },
        {
          "indexed": true,
          "internalType": "uint256",
          "name": "tokenId",
          "type": "uint256"
        }
      ],
      "name": "Approval",
      "type": "event"
    },
    {
      "anonymous": false,
      "inputs": [
        {
          "indexed": true,
          "internalType": "address",
          "name": "owner",
          "type": "address"
        },
        {
          "indexed": true,
          "internalType": "address",
          "name": "operator",
          "type": "address"
        },
        {
          "indexed": false,
          "internalType": "bool",
          "name": "approved",
          "type": "bool"
        }
      ],
      "name": "ApprovalForAll",
      "type": "event"
    },
    {
      "anonymous": false,
      "inputs": [
        {
          "indexed": false,
          "internalType": "address",
          "name": "account",
          "type": "address"
        }
      ],
      "name": "Paused",
      "type": "event"
    },
    {
      "anonymous": false,
      "inputs": [
        {
          "indexed": true,
          "internalType": "bytes32",
          "name": "role",
          "type": "bytes32"
        },
        {
          "indexed": true,
          "internalType": "bytes32",
          "name": "previousAdminRole",
          "type": "bytes32"
        },
        {
          "indexed": true,
          "internalType": "bytes32",
          "name": "newAdminRole",
          "type": "bytes32"
        }
      ],
      "name": "RoleAdminChanged",
      "type": "event"
    },
    {
      "anonymous": false,
      "inputs": [
        {
          "indexed": true,
          "internalType": "bytes32",
          "name": "role",
          "type": "bytes32"
        },
        {
          "indexed": true,
          "internalType": "address",
          "name": "account",
          "type": "address"
        },
        {
          "indexed": true,
          "internalType": "address",
          "name": "sender",
          "type": "address"
        }
      ],
      "name": "RoleGranted",
      "type": "event"
    },
    {
      "anonymous": false,
      "inputs": [
        {
          "indexed": true,
          "internalType": "bytes32",
          "name": "role",
          "type": "bytes32"
        },
        {
          "indexed": true,
          "internalType": "address",
          "name": "account",
          "type": "address"
        },
        {
          "indexed": true,
          "internalType": "address",
          "name": "sender",
          "type": "address"
        }
      ],
      "name": "RoleRevoked",
      "type": "event"
    },
    {
      "anonymous": false,
      "inputs": [
        {
          "indexed": true,
          "internalType": "address",
          "name": "from",
          "type": "address"
        },
        {
          "indexed": true,
          "internalType": "address",
          "name": "to",
          "type": "address"
        },
        {
          "indexed": true,
          "internalType": "uint256",
          "name": "tokenId",
          "type": "uint256"
        }
      ],
      "name": "Transfer",
      "type": "event"
    },
    {
      "anonymous": false,
      "inputs": [
        {
          "indexed": false,
          "internalType": "address",
          "name": "account",
          "type": "address"
        }
      ],
      "name": "Unpaused",
      "type": "event"
    },
    {
      "inputs": [],
      "name": "DEFAULT_ADMIN_ROLE",
      "outputs": [
        {
          "internalType": "bytes32",
          "name": "",
          "type": "bytes32"
        }
      ],
      "stateMutability": "view",
      "type": "function"
    },
    {
      "inputs": [],
      "name": "MINTER_ROLE",
      "outputs": [
        {
          "internalType": "bytes32",
          "name": "",
          "type": "bytes32"
        }
      ],
      "stateMutability": "view",
      "type": "function"
    },
    {
      "inputs": [],
      "name": "PAUSER_ROLE",
      "outputs": [
        {
          "internalType": "bytes32",
          "name": "",
          "type": "bytes32"
        }
      ],
      "stateMutability": "view",
      "type": "function"
    },
    {
      "inputs": [
        {
          "internalType": "address",
          "name": "to",
          "type": "address"
        },
        {
          "internalType": "uint256",
          "name": "tokenId",
          "type": "uint256"
        }
      ],
      "name": "approve",
      "outputs": [],
      "stateMutability": "nonpayable",
      "type": "function"
    },
    {
      "inputs": [
        {
          "internalType": "address",
          "name": "owner",
          "type": "address"
        }
      ],
      "name": "balanceOf",
      "outputs": [
        {
          "internalType": "uint256",
          "name": "",
          "type": "uint256"
        }
      ],
      "stateMutability": "view",
      "type": "function"
    },
    {
      "inputs": [
        {
          "internalType": "uint256",
          "name": "tokenId",
          "type": "uint256"
        }
      ],
      "name": "burn",
      "outputs": [],
      "stateMutability": "nonpayable",
      "type": "function"
    },
    {
      "inputs": [
        {
          "internalType": "uint256",
          "name": "tokenId",
          "type": "uint256"
        }
      ],
      "name": "getApproved",
      "outputs": [
        {
          "internalType": "address",
          "name": "",
          "type": "address"
        }
      ],
      "stateMutability": "view",
      "type": "function"
    },
    {
      "inputs": [
        {
          "internalType": "bytes32",
          "name": "role",
          "type": "bytes32"
        }
      ],
      "name": "getRoleAdmin",
      "outputs": [
        {
          "internalType": "bytes32",
          "name": "",
          "type": "bytes32"
        }
      ],
      "stateMutability": "view",
      "type": "function"
    },
    {
      "inputs": [
        {
          "internalType": "bytes32",
          "name": "role",
          "type": "bytes32"
        },
        {
          "internalType": "uint256",
          "name": "index",
          "type": "uint256"
        }
      ],
      "name": "getRoleMember",
      "outputs": [
        {
          "internalType": "address",
          "name": "",
          "type": "address"
        }
      ],
      "stateMutability": "view",
      "type": "function"
    },
    {
      "inputs": [
        {
          "internalType": "bytes32",
          "name": "role",
          "type": "bytes32"
        }
      ],
      "name": "getRoleMemberCount",
      "outputs": [
        {
          "internalType": "uint256",
          "name": "",
          "type": "uint256"
        }
      ],
      "stateMutability": "view",
      "type": "function"
    },
    {
      "inputs": [
        {
          "internalType": "bytes32",
          "name": "role",
          "type": "bytes32"
        },
        {
          "internalType": "address",
          "name": "account",
          "type": "address"
        }
      ],
      "name": "grantRole",
      "outputs": [],
      "stateMutability": "nonpayable",
      "type": "function"
    },
    {
      "inputs": [
        {
          "internalType": "bytes32",
          "name": "role",
          "type": "bytes32"
        },
        {
          "internalType": "address",
          "name": "account",
          "type": "address"
        }
      ],
      "name": "hasRole",
      "outputs": [
        {
          "internalType": "bool",
          "name": "",
          "type": "bool"
        }
      ],
      "stateMutability": "view",
      "type": "function"
    },
    {
      "inputs": [
        {
          "internalType": "address",
          "name": "owner",
          "type": "address"
        },
        {
          "internalType": "address",
          "name": "operator",
          "type": "address"
        }
      ],
      "name": "isApprovedForAll",
      "outputs": [
        {
          "internalType": "bool",
          "name": "",
          "type": "bool"
        }
      ],
      "stateMutability": "view",
      "type": "function"
    },
    {
      "inputs": [
        {
          "internalType": "address",
          "name": "to",
          "type": "address"
        }
      ],
      "name": "mint",
      "outputs": [],
      "stateMutability": "nonpayable",
      "type": "function"
    },
    {
      "inputs": [],
      "name": "name",
      "outputs": [
        {
          "internalType": "string",
          "name": "",
          "type": "string"
        }
      ],
      "stateMutability": "view",
      "type": "function"
    },
    {
      "inputs": [
        {
          "internalType": "uint256",
          "name": "tokenId",
          "type": "uint256"
        }
      ],
      "name": "ownerOf",
      "outputs": [
        {
          "internalType": "address",
          "name": "",
          "type": "address"
        }
      ],
      "stateMutability": "view",
      "type": "function"
    },
    {
      "inputs": [],
      "name": "pause",
      "outputs": [],
      "stateMutability": "nonpayable",
      "type": "function"
    },
    {
      "inputs": [],
      "name": "paused",
      "outputs": [
        {
          "internalType": "bool",
          "name": "",
          "type": "bool"
        }
      ],
      "stateMutability": "view",
      "type": "function"
    },
    {
      "inputs": [
        {
          "internalType": "bytes32",
          "name": "role",
          "type": "bytes32"
        },
        {
          "internalType": "address",
          "name": "account",
          "type": "address"
        }
      ],
      "name": "renounceRole",
      "outputs": [],
      "stateMutability": "nonpayable",
      "type": "function"
    },
    {
      "inputs": [
        {
          "internalType": "bytes32",
          "name": "role",
          "type": "bytes32"
        },
        {
          "internalType": "address",
          "name": "account",
          "type": "address"
        }
      ],
      "name": "revokeRole",
      "outputs": [],
      "stateMutability": "nonpayable",
      "type": "function"
    },
    {
      "inputs": [
        {
          "internalType": "address",
          "name": "from",
          "type": "address"
        },
        {
          "internalType": "address",
          "name": "to",
          "type": "address"
        },
        {
          "internalType": "uint256",
          "name": "tokenId",
          "type": "uint256"
        }
      ],
      "name": "safeTransferFrom",
      "outputs": [],
      "stateMutability": "nonpayable",
      "type": "function"
    },
    {
      "inputs": [
        {
          "internalType": "address",
          "name": "from",
          "type": "address"
        },
        {
          "internalType": "address",
          "name": "to",
          "type": "address"
        },
        {
          "internalType": "uint256",
          "name": "tokenId",
          "type": "uint256"
        },
        {
          "internalType": "bytes",
          "name": "_data",
          "type": "bytes"
        }
      ],
      "name": "safeTransferFrom",
      "outputs": [],
      "stateMutability": "nonpayable",
      "type": "function"
    },
    {
      "inputs": [
        {
          "internalType": "address",
          "name": "operator",
          "type": "address"
        },
        {
          "internalType": "bool",
          "name": "approved",
          "type": "bool"
        }
      ],
      "name": "setApprovalForAll",
      "outputs": [],
      "stateMutability": "nonpayable",
      "type": "function"
    },
    {
      "inputs": [
        {
          "internalType": "bytes4",
          "name": "interfaceId",
          "type": "bytes4"
        }
      ],
      "name": "supportsInterface",
      "outputs": [
        {
          "internalType": "bool",
          "name": "",
          "type": "bool"
        }
      ],
      "stateMutability": "view",
      "type": "function"
    },
    {
      "inputs": [],
      "name": "symbol",
      "outputs": [
        {
          "internalType": "string",
          "name": "",
          "type": "string"
        }
      ],
      "stateMutability": "view",
      "type": "function"
    },
    {
      "inputs": [
        {
          "internalType": "uint256",
          "name": "index",
          "type": "uint256"
        }
      ],
      "name": "tokenByIndex",
      "outputs": [
        {
          "internalType": "uint256",
          "name": "",
          "type": "uint256"
        }
      ],
      "stateMutability": "view",
      "type": "function"
    },
    {
      "inputs": [
        {
          "internalType": "address",
          "name": "owner",
          "type": "address"
        },
        {
          "internalType": "uint256",
          "name": "index",
          "type": "uint256"
        }
      ],
      "name": "tokenOfOwnerByIndex",
      "outputs": [
        {
          "internalType": "uint256",
          "name": "",
          "type": "uint256"
        }
      ],
      "stateMutability": "view",
      "type": "function"
    },
    {
      "inputs": [
        {
          "internalType": "uint256",
          "name": "tokenId",
          "type": "uint256"
        }
      ],
      "name": "tokenURI",
      "outputs": [
        {
          "internalType": "string",
          "name": "",
          "type": "string"
        }
      ],
      "stateMutability": "view",
      "type": "function"
    },
    {
      "inputs": [],
      "name": "totalSupply",
      "outputs": [
        {
          "internalType": "uint256",
          "name": "",
          "type": "uint256"
        }
      ],
      "stateMutability": "view",
      "type": "function"
    },
    {
      "inputs": [
        {
          "internalType": "address",
          "name": "from",
          "type": "address"
        },
        {
          "internalType": "address",
          "name": "to",
          "type": "address"
        },
        {
          "internalType": "uint256",
          "name": "tokenId",
          "type": "uint256"
        }
      ],
      "name": "transferFrom",
      "outputs": [],
      "stateMutability": "nonpayable",
      "type": "function"
    },
    {
      "inputs": [],
      "name": "unpause",
      "outputs": [],
      "stateMutability": "nonpayable",
      "type": "function"
    }
  ],
  "bytecode": "0x60806040523480156200001157600080fd5b506040518060400160405280600a81526020017f447279616465734e4654000000000000000000000000000000000000000000008152506040518060400160405280600381526020017f44525900000000000000000000000000000000000000000000000000000000008152506040518060600160405280603b815260200162004f9a603b913982828160029080519060200190620000b292919062000447565b508060039080519060200190620000cb92919062000447565b5050506000600c60006101000a81548160ff02191690831515021790555080600e90805190602001906200010192919062000447565b50620001266000801b6200011a620001b160201b60201c565b620001b960201b60201c565b620001677f9f2df0fed2c77648de5860a4cc508cd0818c85b8b8a1ab4ceeef8d981c8956a66200015b620001b160201b60201c565b620001b960201b60201c565b620001a87f65d7a28e3265b37a6474929f336521b332c1681b933f6cb9f3376673440d862a6200019c620001b160201b60201c565b620001b960201b60201c565b5050506200055c565b600033905090565b620001cb8282620001cf60201b60201c565b5050565b620001e682826200021760201b620011621760201c565b6200021281600160008581526020019081526020016000206200030860201b620012421790919060201c565b505050565b6200022982826200034060201b60201c565b6200030457600160008084815260200190815260200160002060000160008373ffffffffffffffffffffffffffffffffffffffff1673ffffffffffffffffffffffffffffffffffffffff16815260200190815260200160002060006101000a81548160ff021916908315150217905550620002a9620001b160201b60201c565b73ffffffffffffffffffffffffffffffffffffffff168173ffffffffffffffffffffffffffffffffffffffff16837f2f8788117e7eff1d82e926ec794901d17c78024a50270940304540a733656f0d60405160405180910390a45b5050565b600062000338836000018373ffffffffffffffffffffffffffffffffffffffff1660001b620003aa60201b60201c565b905092915050565b600080600084815260200190815260200160002060000160008373ffffffffffffffffffffffffffffffffffffffff1673ffffffffffffffffffffffffffffffffffffffff16815260200190815260200160002060009054906101000a900460ff16905092915050565b6000620003be83836200042460201b60201c565b620004195782600001829080600181540180825580915050600190039060005260206000200160009091909190915055826000018054905083600101600084815260200190815260200160002081905550600190506200041e565b600090505b92915050565b600080836001016000848152602001908152602001600020541415905092915050565b8280546200045590620004f7565b90600052602060002090601f016020900481019282620004795760008555620004c5565b82601f106200049457805160ff1916838001178555620004c5565b82800160010185558215620004c5579182015b82811115620004c4578251825591602001919060010190620004a7565b5b509050620004d49190620004d8565b5090565b5b80821115620004f3576000816000905550600101620004d9565b5090565b600060028204905060018216806200051057607f821691505b602082108114156200052757620005266200052d565b5b50919050565b7f4e487b7100000000000000000000000000000000000000000000000000000000600052602260045260246000fd5b614a2e806200056c6000396000f3fe608060405234801561001057600080fd5b50600436106101e55760003560e01c80636352211e1161010f578063a22cb465116100a2578063d539139311610071578063d5391393146105a0578063d547741f146105be578063e63ab1e9146105da578063e985e9c5146105f8576101e5565b8063a22cb46514610508578063b88d4fde14610524578063c87b56dd14610540578063ca15c87314610570576101e5565b80639010d07c116100de5780639010d07c1461046c57806391d148541461049c57806395d89b41146104cc578063a217fddf146104ea576101e5565b80636352211e146103e65780636a6278421461041657806370a08231146104325780638456cb5914610462576101e5565b80632f2ff15d1161018757806342842e0e1161015657806342842e0e1461036057806342966c681461037c5780634f6ccce7146103985780635c975abb146103c8576101e5565b80632f2ff15d146102ee5780632f745c591461030a57806336568abe1461033a5780633f4ba83a14610356576101e5565b8063095ea7b3116101c3578063095ea7b31461026857806318160ddd1461028457806323b872dd146102a2578063248a9ca3146102be576101e5565b806301ffc9a7146101ea57806306fdde031461021a578063081812fc14610238575b600080fd5b61020460048036038101906101ff919061344d565b610628565b6040516102119190613a62565b60405180910390f35b61022261063a565b60405161022f9190613a98565b60405180910390f35b610252600480360381019061024d919061349f565b6106cc565b60405161025f91906139fb565b60405180910390f35b610282600480360381019061027d9190613370565b610751565b005b61028c610869565b6040516102999190613dda565b60405180910390f35b6102bc60048036038101906102b7919061326a565b610876565b005b6102d860048036038101906102d391906133ac565b6108d6565b6040516102e59190613a7d565b60405180910390f35b610308600480360381019061030391906133d5565b6108f5565b005b610324600480360381019061031f9190613370565b61091e565b6040516103319190613dda565b60405180910390f35b610354600480360381019061034f91906133d5565b6109c3565b005b61035e610a46565b005b61037a6004803603810190610375919061326a565b610ac0565b005b6103966004803603810190610391919061349f565b610ae0565b005b6103b260048036038101906103ad919061349f565b610b3c565b6040516103bf9190613dda565b60405180910390f35b6103d0610bd3565b6040516103dd9190613a62565b60405180910390f35b61040060048036038101906103fb919061349f565b610bea565b60405161040d91906139fb565b60405180910390f35b610430600480360381019061042b9190613205565b610c9c565b005b61044c60048036038101906104479190613205565b610d2c565b6040516104599190613dda565b60405180910390f35b61046a610de4565b005b61048660048036038101906104819190613411565b610e5e565b60405161049391906139fb565b60405180910390f35b6104b660048036038101906104b191906133d5565b610e8d565b6040516104c39190613a62565b60405180910390f35b6104d4610ef7565b6040516104e19190613a98565b60405180910390f35b6104f2610f89565b6040516104ff9190613a7d565b60405180910390f35b610522600480360381019061051d9190613334565b610f90565b005b61053e600480360381019061053991906132b9565b610fa6565b005b61055a6004803603810190610555919061349f565b611008565b6040516105679190613a98565b60405180910390f35b61058a600480360381019061058591906133ac565b611039565b6040516105979190613dda565b60405180910390f35b6105a861105d565b6040516105b59190613a7d565b60405180910390f35b6105d860048036038101906105d391906133d5565b611081565b005b6105e26110aa565b6040516105ef9190613a7d565b60405180910390f35b610612600480360381019061060d919061322e565b6110ce565b60405161061f9190613a62565b60405180910390f35b600061063382611272565b9050919050565b6060600280546106499061408d565b80601f01602080910402602001604051908101604052809291908181526020018280546106759061408d565b80156106c25780601f10610697576101008083540402835291602001916106c2565b820191906000526020600020905b8154815290600101906020018083116106a557829003601f168201915b5050505050905090565b60006106d7826112ec565b610716576040517f08c379a000000000000000000000000000000000000000000000000000000000815260040161070d90613cba565b60405180910390fd5b6006600083815260200190815260200160002060009054906101000a900473ffffffffffffffffffffffffffffffffffffffff169050919050565b600061075c82610bea565b90508073ffffffffffffffffffffffffffffffffffffffff168373ffffffffffffffffffffffffffffffffffffffff1614156107cd576040517f08c379a00000000000000000000000000000000000000000000000000000000081526004016107c490613cfa565b60405180910390fd5b8073ffffffffffffffffffffffffffffffffffffffff166107ec611358565b73ffffffffffffffffffffffffffffffffffffffff16148061081b575061081a81610815611358565b6110ce565b5b61085a576040517f08c379a000000000000000000000000000000000000000000000000000000000815260040161085190613c3a565b60405180910390fd5b6108648383611360565b505050565b6000600a80549050905090565b610887610881611358565b82611419565b6108c6576040517f08c379a00000000000000000000000000000000000000000000000000000000081526004016108bd90613d1a565b60405180910390fd5b6108d18383836114f7565b505050565b6000806000838152602001908152602001600020600101549050919050565b6108fe826108d6565b61090f8161090a611358565b61175e565b61091983836117fb565b505050565b600061092983610d2c565b821061096a576040517f08c379a000000000000000000000000000000000000000000000000000000000815260040161096190613b1a565b60405180910390fd5b600860008473ffffffffffffffffffffffffffffffffffffffff1673ffffffffffffffffffffffffffffffffffffffff168152602001908152602001600020600083815260200190815260200160002054905092915050565b6109cb611358565b73ffffffffffffffffffffffffffffffffffffffff168173ffffffffffffffffffffffffffffffffffffffff1614610a38576040517f08c379a0000000000000000000000000000000000000000000000000000000008152600401610a2f90613dba565b60405180910390fd5b610a42828261182f565b5050565b610a777f65d7a28e3265b37a6474929f336521b332c1681b933f6cb9f3376673440d862a610a72611358565b610e8d565b610ab6576040517f08c379a0000000000000000000000000000000000000000000000000000000008152600401610aad90613d9a565b60405180910390fd5b610abe611863565b565b610adb83838360405180602001604052806000815250610fa6565b505050565b610af1610aeb611358565b82611419565b610b30576040517f08c379a0000000000000000000000000000000000000000000000000000000008152600401610b2790613d7a565b60405180910390fd5b610b3981611905565b50565b6000610b46610869565b8210610b87576040517f08c379a0000000000000000000000000000000000000000000000000000000008152600401610b7e90613d3a565b60405180910390fd5b600a8281548110610bc1577f4e487b7100000000000000000000000000000000000000000000000000000000600052603260045260246000fd5b90600052602060002001549050919050565b6000600c60009054906101000a900460ff16905090565b6000806004600084815260200190815260200160002060009054906101000a900473ffffffffffffffffffffffffffffffffffffffff169050600073ffffffffffffffffffffffffffffffffffffffff168173ffffffffffffffffffffffffffffffffffffffff161415610c93576040517f08c379a0000000000000000000000000000000000000000000000000000000008152600401610c8a90613c7a565b60405180910390fd5b80915050919050565b610ccd7f9f2df0fed2c77648de5860a4cc508cd0818c85b8b8a1ab4ceeef8d981c8956a6610cc8611358565b610e8d565b610d0c576040517f08c379a0000000000000000000000000000000000000000000000000000000008152600401610d0390613d5a565b60405180910390fd5b610d1f81610d1a600d611a22565b611a30565b610d29600d611c0a565b50565b60008073ffffffffffffffffffffffffffffffffffffffff168273ffffffffffffffffffffffffffffffffffffffff161415610d9d576040517f08c379a0000000000000000000000000000000000000000000000000000000008152600401610d9490613c5a565b60405180910390fd5b600560008373ffffffffffffffffffffffffffffffffffffffff1673ffffffffffffffffffffffffffffffffffffffff168152602001908152602001600020549050919050565b610e157f65d7a28e3265b37a6474929f336521b332c1681b933f6cb9f3376673440d862a610e10611358565b610e8d565b610e54576040517f08c379a0000000000000000000000000000000000000000000000000000000008152600401610e4b90613b9a565b60405180910390fd5b610e5c611c20565b565b6000610e858260016000868152602001908152602001600020611cc390919063ffffffff16565b905092915050565b600080600084815260200190815260200160002060000160008373ffffffffffffffffffffffffffffffffffffffff1673ffffffffffffffffffffffffffffffffffffffff16815260200190815260200160002060009054906101000a900460ff16905092915050565b606060038054610f069061408d565b80601f0160208091040260200160405190810160405280929190818152602001828054610f329061408d565b8015610f7f5780601f10610f5457610100808354040283529160200191610f7f565b820191906000526020600020905b815481529060010190602001808311610f6257829003601f168201915b5050505050905090565b6000801b81565b610fa2610f9b611358565b8383611cdd565b5050565b610fb7610fb1611358565b83611419565b610ff6576040517f08c379a0000000000000000000000000000000000000000000000000000000008152600401610fed90613d1a565b60405180910390fd5b61100284848484611e4a565b50505050565b606061101382611ea6565b604051602001611023919061399f565b6040516020818303038152906040529050919050565b600061105660016000848152602001908152602001600020611f4d565b9050919050565b7f9f2df0fed2c77648de5860a4cc508cd0818c85b8b8a1ab4ceeef8d981c8956a681565b61108a826108d6565b61109b81611096611358565b61175e565b6110a5838361182f565b505050565b7f65d7a28e3265b37a6474929f336521b332c1681b933f6cb9f3376673440d862a81565b6000600760008473ffffffffffffffffffffffffffffffffffffffff1673ffffffffffffffffffffffffffffffffffffffff16815260200190815260200160002060008373ffffffffffffffffffffffffffffffffffffffff1673ffffffffffffffffffffffffffffffffffffffff16815260200190815260200160002060009054906101000a900460ff16905092915050565b61116c8282610e8d565b61123e57600160008084815260200190815260200160002060000160008373ffffffffffffffffffffffffffffffffffffffff1673ffffffffffffffffffffffffffffffffffffffff16815260200190815260200160002060006101000a81548160ff0219169083151502179055506111e3611358565b73ffffffffffffffffffffffffffffffffffffffff168173ffffffffffffffffffffffffffffffffffffffff16837f2f8788117e7eff1d82e926ec794901d17c78024a50270940304540a733656f0d60405160405180910390a45b5050565b600061126a836000018373ffffffffffffffffffffffffffffffffffffffff1660001b611f62565b905092915050565b60007f780e9d63000000000000000000000000000000000000000000000000000000007bffffffffffffffffffffffffffffffffffffffffffffffffffffffff1916827bffffffffffffffffffffffffffffffffffffffffffffffffffffffff191614806112e557506112e482611fd2565b5b9050919050565b60008073ffffffffffffffffffffffffffffffffffffffff166004600084815260200190815260200160002060009054906101000a900473ffffffffffffffffffffffffffffffffffffffff1673ffffffffffffffffffffffffffffffffffffffff1614159050919050565b600033905090565b816006600083815260200190815260200160002060006101000a81548173ffffffffffffffffffffffffffffffffffffffff021916908373ffffffffffffffffffffffffffffffffffffffff160217905550808273ffffffffffffffffffffffffffffffffffffffff166113d383610bea565b73ffffffffffffffffffffffffffffffffffffffff167f8c5be1e5ebec7d5bd14f71427d1e84f3dd0314c0f7b2291e5b200ac8c7c3b92560405160405180910390a45050565b6000611424826112ec565b611463576040517f08c379a000000000000000000000000000000000000000000000000000000000815260040161145a90613bfa565b60405180910390fd5b600061146e83610bea565b90508073ffffffffffffffffffffffffffffffffffffffff168473ffffffffffffffffffffffffffffffffffffffff1614806114dd57508373ffffffffffffffffffffffffffffffffffffffff166114c5846106cc565b73ffffffffffffffffffffffffffffffffffffffff16145b806114ee57506114ed81856110ce565b5b91505092915050565b8273ffffffffffffffffffffffffffffffffffffffff1661151782610bea565b73ffffffffffffffffffffffffffffffffffffffff161461156d576040517f08c379a000000000000000000000000000000000000000000000000000000000815260040161156490613b5a565b60405180910390fd5b600073ffffffffffffffffffffffffffffffffffffffff168273ffffffffffffffffffffffffffffffffffffffff1614156115dd576040517f08c379a00000000000000000000000000000000000000000000000000000000081526004016115d490613bba565b60405180910390fd5b6115e88383836120b4565b6115f3600082611360565b6001600560008573ffffffffffffffffffffffffffffffffffffffff1673ffffffffffffffffffffffffffffffffffffffff16815260200190815260200160002060008282546116439190613f6f565b925050819055506001600560008473ffffffffffffffffffffffffffffffffffffffff1673ffffffffffffffffffffffffffffffffffffffff168152602001908152602001600020600082825461169a9190613e8e565b92505081905550816004600083815260200190815260200160002060006101000a81548173ffffffffffffffffffffffffffffffffffffffff021916908373ffffffffffffffffffffffffffffffffffffffff160217905550808273ffffffffffffffffffffffffffffffffffffffff168473ffffffffffffffffffffffffffffffffffffffff167fddf252ad1be2c89b69c2b068fc378daa952ba7f163c4a11628f55a4df523b3ef60405160405180910390a46117598383836120c4565b505050565b6117688282610e8d565b6117f75761178d8173ffffffffffffffffffffffffffffffffffffffff1660146120c9565b61179b8360001c60206120c9565b6040516020016117ac9291906139c1565b6040516020818303038152906040526040517f08c379a00000000000000000000000000000000000000000000000000000000081526004016117ee9190613a98565b60405180910390fd5b5050565b6118058282611162565b61182a816001600085815260200190815260200160002061124290919063ffffffff16565b505050565b61183982826123c3565b61185e81600160008581526020019081526020016000206124a490919063ffffffff16565b505050565b61186b610bd3565b6118aa576040517f08c379a00000000000000000000000000000000000000000000000000000000081526004016118a190613afa565b60405180910390fd5b6000600c60006101000a81548160ff0219169083151502179055507f5db9ee0a495bf2e6ff9c91a7834c1ba4fdd244a5e8aa4e537bd38aeae4b073aa6118ee611358565b6040516118fb91906139fb565b60405180910390a1565b600061191082610bea565b905061191e816000846120b4565b611929600083611360565b6001600560008373ffffffffffffffffffffffffffffffffffffffff1673ffffffffffffffffffffffffffffffffffffffff16815260200190815260200160002060008282546119799190613f6f565b925050819055506004600083815260200190815260200160002060006101000a81549073ffffffffffffffffffffffffffffffffffffffff021916905581600073ffffffffffffffffffffffffffffffffffffffff168273ffffffffffffffffffffffffffffffffffffffff167fddf252ad1be2c89b69c2b068fc378daa952ba7f163c4a11628f55a4df523b3ef60405160405180910390a4611a1e816000846120c4565b5050565b600081600001549050919050565b600073ffffffffffffffffffffffffffffffffffffffff168273ffffffffffffffffffffffffffffffffffffffff161415611aa0576040517f08c379a0000000000000000000000000000000000000000000000000000000008152600401611a9790613c9a565b60405180910390fd5b611aa9816112ec565b15611ae9576040517f08c379a0000000000000000000000000000000000000000000000000000000008152600401611ae090613b7a565b60405180910390fd5b611af5600083836120b4565b6001600560008473ffffffffffffffffffffffffffffffffffffffff1673ffffffffffffffffffffffffffffffffffffffff1681526020019081526020016000206000828254611b459190613e8e565b92505081905550816004600083815260200190815260200160002060006101000a81548173ffffffffffffffffffffffffffffffffffffffff021916908373ffffffffffffffffffffffffffffffffffffffff160217905550808273ffffffffffffffffffffffffffffffffffffffff16600073ffffffffffffffffffffffffffffffffffffffff167fddf252ad1be2c89b69c2b068fc378daa952ba7f163c4a11628f55a4df523b3ef60405160405180910390a4611c06600083836120c4565b5050565b6001816000016000828254019250508190555050565b611c28610bd3565b15611c68576040517f08c379a0000000000000000000000000000000000000000000000000000000008152600401611c5f90613c1a565b60405180910390fd5b6001600c60006101000a81548160ff0219169083151502179055507f62e78cea01bee320cd4e420270b5ea74000d11b0c9f74754ebdbfc544b05a258611cac611358565b604051611cb991906139fb565b60405180910390a1565b6000611cd283600001836124d4565b60001c905092915050565b8173ffffffffffffffffffffffffffffffffffffffff168373ffffffffffffffffffffffffffffffffffffffff161415611d4c576040517f08c379a0000000000000000000000000000000000000000000000000000000008152600401611d4390613bda565b60405180910390fd5b80600760008573ffffffffffffffffffffffffffffffffffffffff1673ffffffffffffffffffffffffffffffffffffffff16815260200190815260200160002060008473ffffffffffffffffffffffffffffffffffffffff1673ffffffffffffffffffffffffffffffffffffffff16815260200190815260200160002060006101000a81548160ff0219169083151502179055508173ffffffffffffffffffffffffffffffffffffffff168373ffffffffffffffffffffffffffffffffffffffff167f17307eab39ab6107e8899845ad3d59bd9653f200f220920489ca2b5937696c3183604051611e3d9190613a62565b60405180910390a3505050565b611e558484846114f7565b611e6184848484612525565b611ea0576040517f08c379a0000000000000000000000000000000000000000000000000000000008152600401611e9790613b3a565b60405180910390fd5b50505050565b6060611eb1826112ec565b611ef0576040517f08c379a0000000000000000000000000000000000000000000000000000000008152600401611ee790613cda565b60405180910390fd5b6000611efa6126bc565b90506000815111611f1a5760405180602001604052806000815250611f45565b80611f248461274e565b604051602001611f3592919061397b565b6040516020818303038152906040525b915050919050565b6000611f5b826000016128fb565b9050919050565b6000611f6e838361290c565b611fc7578260000182908060018154018082558091505060019003906000526020600020016000909190919091505582600001805490508360010160008481526020019081526020016000208190555060019050611fcc565b600090505b92915050565b60007f80ac58cd000000000000000000000000000000000000000000000000000000007bffffffffffffffffffffffffffffffffffffffffffffffffffffffff1916827bffffffffffffffffffffffffffffffffffffffffffffffffffffffff1916148061209d57507f5b5e139f000000000000000000000000000000000000000000000000000000007bffffffffffffffffffffffffffffffffffffffffffffffffffffffff1916827bffffffffffffffffffffffffffffffffffffffffffffffffffffffff1916145b806120ad57506120ac8261292f565b5b9050919050565b6120bf8383836129a9565b505050565b505050565b6060600060028360026120dc9190613f15565b6120e69190613e8e565b67ffffffffffffffff811115612125577f4e487b7100000000000000000000000000000000000000000000000000000000600052604160045260246000fd5b6040519080825280601f01601f1916602001820160405280156121575781602001600182028036833780820191505090505b5090507f3000000000000000000000000000000000000000000000000000000000000000816000815181106121b5577f4e487b7100000000000000000000000000000000000000000000000000000000600052603260045260246000fd5b60200101907effffffffffffffffffffffffffffffffffffffffffffffffffffffffffffff1916908160001a9053507f78000000000000000000000000000000000000000000000000000000000000008160018151811061223f577f4e487b7100000000000000000000000000000000000000000000000000000000600052603260045260246000fd5b60200101907effffffffffffffffffffffffffffffffffffffffffffffffffffffffffffff1916908160001a9053506000600184600261227f9190613f15565b6122899190613e8e565b90505b6001811115612375577f3031323334353637383961626364656600000000000000000000000000000000600f8616601081106122f1577f4e487b7100000000000000000000000000000000000000000000000000000000600052603260045260246000fd5b1a60f81b82828151811061232e577f4e487b7100000000000000000000000000000000000000000000000000000000600052603260045260246000fd5b60200101907effffffffffffffffffffffffffffffffffffffffffffffffffffffffffffff1916908160001a905350600485901c94508061236e90614063565b905061228c565b50600084146123b9576040517f08c379a00000000000000000000000000000000000000000000000000000000081526004016123b090613aba565b60405180910390fd5b8091505092915050565b6123cd8282610e8d565b156124a057600080600084815260200190815260200160002060000160008373ffffffffffffffffffffffffffffffffffffffff1673ffffffffffffffffffffffffffffffffffffffff16815260200190815260200160002060006101000a81548160ff021916908315150217905550612445611358565b73ffffffffffffffffffffffffffffffffffffffff168173ffffffffffffffffffffffffffffffffffffffff16837ff6391f5c32d9c69d2a47ea670b442974b53935d1edc7fd64eb21e047a839171b60405160405180910390a45b5050565b60006124cc836000018373ffffffffffffffffffffffffffffffffffffffff1660001b612a01565b905092915050565b6000826000018281548110612512577f4e487b7100000000000000000000000000000000000000000000000000000000600052603260045260246000fd5b9060005260206000200154905092915050565b60006125468473ffffffffffffffffffffffffffffffffffffffff16612b87565b156126af578373ffffffffffffffffffffffffffffffffffffffff1663150b7a0261256f611358565b8786866040518563ffffffff1660e01b81526004016125919493929190613a16565b602060405180830381600087803b1580156125ab57600080fd5b505af19250505080156125dc57506040513d601f19601f820116820180604052508101906125d99190613476565b60015b61265f573d806000811461260c576040519150601f19603f3d011682016040523d82523d6000602084013e612611565b606091505b50600081511415612657576040517f08c379a000000000000000000000000000000000000000000000000000000000815260040161264e90613b3a565b60405180910390fd5b805181602001fd5b63150b7a0260e01b7bffffffffffffffffffffffffffffffffffffffffffffffffffffffff1916817bffffffffffffffffffffffffffffffffffffffffffffffffffffffff1916149150506126b4565b600190505b949350505050565b6060600e80546126cb9061408d565b80601f01602080910402602001604051908101604052809291908181526020018280546126f79061408d565b80156127445780601f1061271957610100808354040283529160200191612744565b820191906000526020600020905b81548152906001019060200180831161272757829003601f168201915b5050505050905090565b60606000821415612796576040518060400160405280600181526020017f300000000000000000000000000000000000000000000000000000000000000081525090506128f6565b600082905060005b600082146127c85780806127b1906140f0565b915050600a826127c19190613ee4565b915061279e565b60008167ffffffffffffffff81111561280a577f4e487b7100000000000000000000000000000000000000000000000000000000600052604160045260246000fd5b6040519080825280601f01601f19166020018201604052801561283c5781602001600182028036833780820191505090505b5090505b600085146128ef576001826128559190613f6f565b9150600a856128649190614139565b60306128709190613e8e565b60f81b8183815181106128ac577f4e487b7100000000000000000000000000000000000000000000000000000000600052603260045260246000fd5b60200101907effffffffffffffffffffffffffffffffffffffffffffffffffffffffffffff1916908160001a905350600a856128e89190613ee4565b9450612840565b8093505050505b919050565b600081600001805490509050919050565b600080836001016000848152602001908152602001600020541415905092915050565b60007f5a05180f000000000000000000000000000000000000000000000000000000007bffffffffffffffffffffffffffffffffffffffffffffffffffffffff1916827bffffffffffffffffffffffffffffffffffffffffffffffffffffffff191614806129a257506129a182612baa565b5b9050919050565b6129b4838383612c24565b6129bc610bd3565b156129fc576040517f08c379a00000000000000000000000000000000000000000000000000000000081526004016129f390613ada565b60405180910390fd5b505050565b60008083600101600084815260200190815260200160002054905060008114612b7b576000600182612a339190613f6f565b9050600060018660000180549050612a4b9190613f6f565b9050818114612b06576000866000018281548110612a92577f4e487b7100000000000000000000000000000000000000000000000000000000600052603260045260246000fd5b9060005260206000200154905080876000018481548110612adc577f4e487b7100000000000000000000000000000000000000000000000000000000600052603260045260246000fd5b90600052602060002001819055508387600101600083815260200190815260200160002081905550505b85600001805480612b40577f4e487b7100000000000000000000000000000000000000000000000000000000600052603160045260246000fd5b600190038181906000526020600020016000905590558560010160008681526020019081526020016000206000905560019350505050612b81565b60009150505b92915050565b6000808273ffffffffffffffffffffffffffffffffffffffff163b119050919050565b60007f7965db0b000000000000000000000000000000000000000000000000000000007bffffffffffffffffffffffffffffffffffffffffffffffffffffffff1916827bffffffffffffffffffffffffffffffffffffffffffffffffffffffff19161480612c1d5750612c1c82612d38565b5b9050919050565b612c2f838383612da2565b600073ffffffffffffffffffffffffffffffffffffffff168373ffffffffffffffffffffffffffffffffffffffff161415612c7257612c6d81612da7565b612cb1565b8173ffffffffffffffffffffffffffffffffffffffff168373ffffffffffffffffffffffffffffffffffffffff1614612cb057612caf8382612df0565b5b5b600073ffffffffffffffffffffffffffffffffffffffff168273ffffffffffffffffffffffffffffffffffffffff161415612cf457612cef81612f5d565b612d33565b8273ffffffffffffffffffffffffffffffffffffffff168273ffffffffffffffffffffffffffffffffffffffff1614612d3257612d3182826130a0565b5b5b505050565b60007f01ffc9a7000000000000000000000000000000000000000000000000000000007bffffffffffffffffffffffffffffffffffffffffffffffffffffffff1916827bffffffffffffffffffffffffffffffffffffffffffffffffffffffff1916149050919050565b505050565b600a80549050600b600083815260200190815260200160002081905550600a81908060018154018082558091505060019003906000526020600020016000909190919091505550565b60006001612dfd84610d2c565b612e079190613f6f565b9050600060096000848152602001908152602001600020549050818114612eec576000600860008673ffffffffffffffffffffffffffffffffffffffff1673ffffffffffffffffffffffffffffffffffffffff168152602001908152602001600020600084815260200190815260200160002054905080600860008773ffffffffffffffffffffffffffffffffffffffff1673ffffffffffffffffffffffffffffffffffffffff168152602001908152602001600020600084815260200190815260200160002081905550816009600083815260200190815260200160002081905550505b6009600084815260200190815260200160002060009055600860008573ffffffffffffffffffffffffffffffffffffffff1673ffffffffffffffffffffffffffffffffffffffff16815260200190815260200160002060008381526020019081526020016000206000905550505050565b60006001600a80549050612f719190613f6f565b90506000600b60008481526020019081526020016000205490506000600a8381548110612fc7577f4e487b7100000000000000000000000000000000000000000000000000000000600052603260045260246000fd5b9060005260206000200154905080600a838154811061300f577f4e487b7100000000000000000000000000000000000000000000000000000000600052603260045260246000fd5b906000526020600020018190555081600b600083815260200190815260200160002081905550600b600085815260200190815260200160002060009055600a805480613084577f4e487b7100000000000000000000000000000000000000000000000000000000600052603160045260246000fd5b6001900381819060005260206000200160009055905550505050565b60006130ab83610d2c565b905081600860008573ffffffffffffffffffffffffffffffffffffffff1673ffffffffffffffffffffffffffffffffffffffff168152602001908152602001600020600083815260200190815260200160002081905550806009600084815260200190815260200160002081905550505050565b600061313261312d84613e1a565b613df5565b90508281526020810184848401111561314a57600080fd5b613155848285614021565b509392505050565b60008135905061316c81614985565b92915050565b6000813590506131818161499c565b92915050565b600081359050613196816149b3565b92915050565b6000813590506131ab816149ca565b92915050565b6000815190506131c0816149ca565b92915050565b600082601f8301126131d757600080fd5b81356131e784826020860161311f565b91505092915050565b6000813590506131ff816149e1565b92915050565b60006020828403121561321757600080fd5b60006132258482850161315d565b91505092915050565b6000806040838503121561324157600080fd5b600061324f8582860161315d565b92505060206132608582860161315d565b9150509250929050565b60008060006060848603121561327f57600080fd5b600061328d8682870161315d565b935050602061329e8682870161315d565b92505060406132af868287016131f0565b9150509250925092565b600080600080608085870312156132cf57600080fd5b60006132dd8782880161315d565b94505060206132ee8782880161315d565b93505060406132ff878288016131f0565b925050606085013567ffffffffffffffff81111561331c57600080fd5b613328878288016131c6565b91505092959194509250565b6000806040838503121561334757600080fd5b60006133558582860161315d565b925050602061336685828601613172565b9150509250929050565b6000806040838503121561338357600080fd5b60006133918582860161315d565b92505060206133a2858286016131f0565b9150509250929050565b6000602082840312156133be57600080fd5b60006133cc84828501613187565b91505092915050565b600080604083850312156133e857600080fd5b60006133f685828601613187565b92505060206134078582860161315d565b9150509250929050565b6000806040838503121561342457600080fd5b600061343285828601613187565b9250506020613443858286016131f0565b9150509250929050565b60006020828403121561345f57600080fd5b600061346d8482850161319c565b91505092915050565b60006020828403121561348857600080fd5b6000613496848285016131b1565b91505092915050565b6000602082840312156134b157600080fd5b60006134bf848285016131f0565b91505092915050565b6134d181613fa3565b82525050565b6134e081613fb5565b82525050565b6134ef81613fc1565b82525050565b600061350082613e4b565b61350a8185613e61565b935061351a818560208601614030565b61352381614226565b840191505092915050565b600061353982613e56565b6135438185613e72565b9350613553818560208601614030565b61355c81614226565b840191505092915050565b600061357282613e56565b61357c8185613e83565b935061358c818560208601614030565b80840191505092915050565b60006135a5602083613e72565b91506135b082614237565b602082019050919050565b60006135c8602b83613e72565b91506135d382614260565b604082019050919050565b60006135eb601483613e72565b91506135f6826142af565b602082019050919050565b600061360e602b83613e72565b9150613619826142d8565b604082019050919050565b6000613631603283613e72565b915061363c82614327565b604082019050919050565b6000613654602583613e72565b915061365f82614376565b604082019050919050565b6000613677601c83613e72565b9150613682826143c5565b602082019050919050565b600061369a603e83613e72565b91506136a5826143ee565b604082019050919050565b60006136bd602483613e72565b91506136c88261443d565b604082019050919050565b60006136e0601983613e72565b91506136eb8261448c565b602082019050919050565b6000613703602c83613e72565b915061370e826144b5565b604082019050919050565b6000613726601083613e72565b915061373182614504565b602082019050919050565b6000613749603883613e72565b91506137548261452d565b604082019050919050565b600061376c602a83613e72565b91506137778261457c565b604082019050919050565b600061378f602983613e72565b915061379a826145cb565b604082019050919050565b60006137b2602083613e72565b91506137bd8261461a565b602082019050919050565b60006137d5602c83613e72565b91506137e082614643565b604082019050919050565b60006137f8600583613e83565b915061380382614692565b600582019050919050565b600061381b602f83613e72565b9150613826826146bb565b604082019050919050565b600061383e602183613e72565b91506138498261470a565b604082019050919050565b6000613861603183613e72565b915061386c82614759565b604082019050919050565b6000613884602c83613e72565b915061388f826147a8565b604082019050919050565b60006138a7601783613e83565b91506138b2826147f7565b601782019050919050565b60006138ca603d83613e72565b91506138d582614820565b604082019050919050565b60006138ed603083613e72565b91506138f88261486f565b604082019050919050565b6000613910604083613e72565b915061391b826148be565b604082019050919050565b6000613933601183613e83565b915061393e8261490d565b601182019050919050565b6000613956602f83613e72565b915061396182614936565b604082019050919050565b61397581614017565b82525050565b60006139878285613567565b91506139938284613567565b91508190509392505050565b60006139ab8284613567565b91506139b6826137eb565b915081905092915050565b60006139cc8261389a565b91506139d88285613567565b91506139e382613926565b91506139ef8284613567565b91508190509392505050565b6000602082019050613a1060008301846134c8565b92915050565b6000608082019050613a2b60008301876134c8565b613a3860208301866134c8565b613a45604083018561396c565b8181036060830152613a5781846134f5565b905095945050505050565b6000602082019050613a7760008301846134d7565b92915050565b6000602082019050613a9260008301846134e6565b92915050565b60006020820190508181036000830152613ab2818461352e565b905092915050565b60006020820190508181036000830152613ad381613598565b9050919050565b60006020820190508181036000830152613af3816135bb565b9050919050565b60006020820190508181036000830152613b13816135de565b9050919050565b60006020820190508181036000830152613b3381613601565b9050919050565b60006020820190508181036000830152613b5381613624565b9050919050565b60006020820190508181036000830152613b7381613647565b9050919050565b60006020820190508181036000830152613b938161366a565b9050919050565b60006020820190508181036000830152613bb38161368d565b9050919050565b60006020820190508181036000830152613bd3816136b0565b9050919050565b60006020820190508181036000830152613bf3816136d3565b9050919050565b60006020820190508181036000830152613c13816136f6565b9050919050565b60006020820190508181036000830152613c3381613719565b9050919050565b60006020820190508181036000830152613c538161373c565b9050919050565b60006020820190508181036000830152613c738161375f565b9050919050565b60006020820190508181036000830152613c9381613782565b9050919050565b60006020820190508181036000830152613cb3816137a5565b9050919050565b60006020820190508181036000830152613cd3816137c8565b9050919050565b60006020820190508181036000830152613cf38161380e565b9050919050565b60006020820190508181036000830152613d1381613831565b9050919050565b60006020820190508181036000830152613d3381613854565b9050919050565b60006020820190508181036000830152613d5381613877565b9050919050565b60006020820190508181036000830152613d73816138bd565b9050919050565b60006020820190508181036000830152613d93816138e0565b9050919050565b60006020820190508181036000830152613db381613903565b9050919050565b60006020820190508181036000830152613dd381613949565b9050919050565b6000602082019050613def600083018461396c565b92915050565b6000613dff613e10565b9050613e0b82826140bf565b919050565b6000604051905090565b600067ffffffffffffffff821115613e3557613e346141f7565b5b613e3e82614226565b9050602081019050919050565b600081519050919050565b600081519050919050565b600082825260208201905092915050565b600082825260208201905092915050565b600081905092915050565b6000613e9982614017565b9150613ea483614017565b9250827fffffffffffffffffffffffffffffffffffffffffffffffffffffffffffffffff03821115613ed957613ed861416a565b5b828201905092915050565b6000613eef82614017565b9150613efa83614017565b925082613f0a57613f09614199565b5b828204905092915050565b6000613f2082614017565b9150613f2b83614017565b9250817fffffffffffffffffffffffffffffffffffffffffffffffffffffffffffffffff0483118215151615613f6457613f6361416a565b5b828202905092915050565b6000613f7a82614017565b9150613f8583614017565b925082821015613f9857613f9761416a565b5b828203905092915050565b6000613fae82613ff7565b9050919050565b60008115159050919050565b6000819050919050565b60007fffffffff0000000000000000000000000000000000000000000000000000000082169050919050565b600073ffffffffffffffffffffffffffffffffffffffff82169050919050565b6000819050919050565b82818337600083830152505050565b60005b8381101561404e578082015181840152602081019050614033565b8381111561405d576000848401525b50505050565b600061406e82614017565b915060008214156140825761408161416a565b5b600182039050919050565b600060028204905060018216806140a557607f821691505b602082108114156140b9576140b86141c8565b5b50919050565b6140c882614226565b810181811067ffffffffffffffff821117156140e7576140e66141f7565b5b80604052505050565b60006140fb82614017565b91507fffffffffffffffffffffffffffffffffffffffffffffffffffffffffffffffff82141561412e5761412d61416a565b5b600182019050919050565b600061414482614017565b915061414f83614017565b92508261415f5761415e614199565b5b828206905092915050565b7f4e487b7100000000000000000000000000000000000000000000000000000000600052601160045260246000fd5b7f4e487b7100000000000000000000000000000000000000000000000000000000600052601260045260246000fd5b7f4e487b7100000000000000000000000000000000000000000000000000000000600052602260045260246000fd5b7f4e487b7100000000000000000000000000000000000000000000000000000000600052604160045260246000fd5b6000601f19601f8301169050919050565b7f537472696e67733a20686578206c656e67746820696e73756666696369656e74600082015250565b7f4552433732315061757361626c653a20746f6b656e207472616e73666572207760008201527f68696c6520706175736564000000000000000000000000000000000000000000602082015250565b7f5061757361626c653a206e6f7420706175736564000000000000000000000000600082015250565b7f455243373231456e756d657261626c653a206f776e657220696e646578206f7560008201527f74206f6620626f756e6473000000000000000000000000000000000000000000602082015250565b7f4552433732313a207472616e7366657220746f206e6f6e20455243373231526560008201527f63656976657220696d706c656d656e7465720000000000000000000000000000602082015250565b7f4552433732313a207472616e736665722066726f6d20696e636f72726563742060008201527f6f776e6572000000000000000000000000000000000000000000000000000000602082015250565b7f4552433732313a20746f6b656e20616c7265616479206d696e74656400000000600082015250565b7f4552433732315072657365744d696e7465725061757365724175746f49643a2060008201527f6d75737420686176652070617573657220726f6c6520746f2070617573650000602082015250565b7f4552433732313a207472616e7366657220746f20746865207a65726f2061646460008201527f7265737300000000000000000000000000000000000000000000000000000000602082015250565b7f4552433732313a20617070726f766520746f2063616c6c657200000000000000600082015250565b7f4552433732313a206f70657261746f7220717565727920666f72206e6f6e657860008201527f697374656e7420746f6b656e0000000000000000000000000000000000000000602082015250565b7f5061757361626c653a2070617573656400000000000000000000000000000000600082015250565b7f4552433732313a20617070726f76652063616c6c6572206973206e6f74206f7760008201527f6e6572206e6f7220617070726f76656420666f7220616c6c0000000000000000602082015250565b7f4552433732313a2062616c616e636520717565727920666f7220746865207a6560008201527f726f206164647265737300000000000000000000000000000000000000000000602082015250565b7f4552433732313a206f776e657220717565727920666f72206e6f6e657869737460008201527f656e7420746f6b656e0000000000000000000000000000000000000000000000602082015250565b7f4552433732313a206d696e7420746f20746865207a65726f2061646472657373600082015250565b7f4552433732313a20617070726f76656420717565727920666f72206e6f6e657860008201527f697374656e7420746f6b656e0000000000000000000000000000000000000000602082015250565b7f2e6a736f6e000000000000000000000000000000000000000000000000000000600082015250565b7f4552433732314d657461646174613a2055524920717565727920666f72206e6f60008201527f6e6578697374656e7420746f6b656e0000000000000000000000000000000000602082015250565b7f4552433732313a20617070726f76616c20746f2063757272656e74206f776e6560008201527f7200000000000000000000000000000000000000000000000000000000000000602082015250565b7f4552433732313a207472616e736665722063616c6c6572206973206e6f74206f60008201527f776e6572206e6f7220617070726f766564000000000000000000000000000000602082015250565b7f455243373231456e756d657261626c653a20676c6f62616c20696e646578206f60008201527f7574206f6620626f756e64730000000000000000000000000000000000000000602082015250565b7f416363657373436f6e74726f6c3a206163636f756e7420000000000000000000600082015250565b7f4552433732315072657365744d696e7465725061757365724175746f49643a2060008201527f6d7573742068617665206d696e74657220726f6c6520746f206d696e74000000602082015250565b7f4552433732314275726e61626c653a2063616c6c6572206973206e6f74206f7760008201527f6e6572206e6f7220617070726f76656400000000000000000000000000000000602082015250565b7f4552433732315072657365744d696e7465725061757365724175746f49643a2060008201527f6d75737420686176652070617573657220726f6c6520746f20756e7061757365602082015250565b7f206973206d697373696e6720726f6c6520000000000000000000000000000000600082015250565b7f416363657373436f6e74726f6c3a2063616e206f6e6c792072656e6f756e636560008201527f20726f6c657320666f722073656c660000000000000000000000000000000000602082015250565b61498e81613fa3565b811461499957600080fd5b50565b6149a581613fb5565b81146149b057600080fd5b50565b6149bc81613fc1565b81146149c757600080fd5b50565b6149d381613fcb565b81146149de57600080fd5b50565b6149ea81614017565b81146149f557600080fd5b5056fea26469706673582212209b6ba1a0b27844f59e2fb571cb8ee95299cbe377b1477b2a5aa5d992eff5059a64736f6c6343000801003368747470733a2f2f647279616465732d64616f2e73332e616d617a6f6e6177732e636f6d2f6572633732312d746f6b656e2d6d657461646174612f",
  "linkReferences": {},
  "deployedLinkReferences": {}
}